:020000040800F2
:1000000000000120651A00084DC20008C9C100089F
:1000100069C20008F1C1000819C200080000000010
:10002000000000000000000000000000ED7C02085D
:1000300041C20008000000005D7F0208A57F0208A1
:10004000AD1A0008AD1A0008AD1A0008AD1A000874
:10005000AD1A0008AD1A0008AD1A0008AD1A000864
:10006000AD1A0008AD1A0008AD1A0008AD1A000854
:10007000AD1A0008AD1A0008AD1A0008AD1A000844
:10008000AD1A0008AD1A0008AD1A0008FDBF00083F
:10009000A1BF0008AD1A000869C00008AD1A000829
:1000A000AD1A0008AD1A0008AD1A0008AD1A000814
:1000B000FD180008AD1A0008216A0108AD1A0008F1
:1000C000AD1A0008AD1A0008AD1A0008AD1A0008F4
:1000D000AD1A0008AD1A0008AD1A0008C1C000082A
:1000E000AD1A0008AD1A000859C00008AD1A000882
:1000F000AD1A0008AD1A0008AD1A0008AD1A0008C4
:10010000AD1A0008AD1A0008AD1A0008AD1A0008B3
:1001100019C1000871C10008AD1A0008AD1A000825
:10012000AD1A0008AD1A0008AD1A0008AD1A000893
:1001300000000000000000000000000000000000BF
:1001400000000000000000000000000000000000AF
:10015000000000000000000000000000000000009F
:10016000000000000000000000000000000000008F
:10017000000000000000000000000000000000007F
:10018000000000000000000000000000000000006F
:10019000000000000000000000000000000000005F
:1001A000000000000000000000000000000000004F
:1001B000000000000000000000000000000000003F
:1001C000000000000000000000000000000000002F
:1001D000000000000000000000000000000000001F
:0401E0005FF8E0F1F3
:1001E80081F0004102E000BF83F0004330B54FEAE0
:1001F80041044FEA430594EA050F08BF90EA020F4D
:100208001FBF54EA000C55EA020C7FEA645C7FEADF
:10021800655C00F0E2804FEA5454D4EB5555B8BF02
:100228006D420CDD2C4480EA020281EA030382EA73
:10023800000083EA010180EA020281EA0303362D05
:1002480088BF30BD11F0004F4FEA01314FF4801CD8
:100258004CEA113102D0404261EB410113F0004FEA
:100268004FEA03334CEA133302D0524263EB4303A1
:1002780094EA050F00F0A780A4F10104D5F1200E3F
:100288000DDB02FA0EFC22FA05F2801841F100019A
:1002980003FA0EF2801843FA05F359410EE0A5F16E
:1002A80020050EF1200E012A03FA0EFC28BF4CF09F
:1002B800020C43FA05F3C01851EBE37101F0004555
:1002C80007D54FF0000EDCF1000C7EEB00006EEB62
:1002D8000101B1F5801F1BD3B1F5001F0CD34908EC
:1002E8005FEA30004FEA3C0C04F101044FEA445243
:1002F80012F5800F80F09A80BCF1004F08BF5FEACA
:10030800500C50F1000041EB045141EA050130BDA9
:100318005FEA4C0C404141EB0101013C28BFB1F5BB
:10032800801FE9D291F0000F04BF01460020B1FA06
:1003380081F308BF2033A3F10B03B3F120020CDAD9
:100348000C3208DD02F1140CC2F10C0201FA0CF0B7
:1003580021FA02F10CE002F11402D8BFC2F1200C1C
:1003680001FA02F120FA0CFCDCBF41EA0C019040D2
:10037800E41AA2BF01EB0451294330BD6FEA04041B
:100388001F3C1CDA0C340EDC04F11404C4F1200206
:1003980020FA04F001FA02F340EA030021FA04F318
:1003A80045EA030130BDC4F10C04C4F1200220FA6F
:1003B80002F001FA04F340EA0300294630BD21FAAD
:1003C80004F0294630BD94F0000F83F4801306BF73
:1003D80081F480110134013D4EE77FEA645C18BF67
:1003E8007FEA655C29D094EA050F08BF90EA020FFE
:1003F80005D054EA000C04BF1946104630BD91EAF6
:10040800030F1EBF0021002030BD5FEA545C05D1F8
:100418004000494128BF41F0004130BD14F5800437
:100428003CBF01F5801130BD01F0004545F0FE41AB
:1004380041F470014FF0000030BD7FEA645C1ABFE0
:10044800194610467FEA655C1CBF0B46024650EA17
:10045800013406BF52EA033591EA030F41F4002143
:1004680030BD00BF90F0000F04BF0021704730B5C9
:100478004FF4806404F132044FF000054FF000019E
:1004880050E700BF90F0000F04BF0021704730B55F
:100498004FF4806404F1320410F0004548BF404234
:1004A8004FF000013EE700BF42004FEAE2014FEA89
:1004B80031014FEA02701FBF12F07F4393F07F4F64
:1004C80081F06051704732F07F4208BF704793F067
:1004D8007F4F04BF41F40021704730B54FF460747A
:1004E80001F0004521F000411CE700BF50EA01027D
:1004F80008BF704730B54FF000050AE050EA010226
:1005080008BF704730B511F0004502D5404261EB95
:1005180041014FF4806404F132045FEA915C3FF4D6
:10052800D8AE4FF003025FEADC0C18BF03325FEA73
:10053800DC0C18BF033202EBDC02C2F1200300FA24
:1005480003FC20FA02F001FA03FE40EA0E0021FA49
:1005580002F11444BDE600BF70B54FF0FF0C4CF437
:10056800E06C1CEA11541DBF1CEA135594EA0C0FE9
:1005780095EA0C0F00F0DEF82C4481EA030621EA24
:100588004C5123EA4C5350EA013518BF52EA03355F
:1005980041F4801143F4801338D0A0FB02CE4FF011
:1005A8000005E1FB02E506F00042E0FB03E54FF041
:1005B8000006E1FB03569CF0000F18BF4EF0010E39
:1005C800A4F1FF04B6F5007F64F5407404D25FEA35
:1005D8004E0E6D4146EB060642EAC62141EA5551E8
:1005E8004FEAC52040EA5E504FEACE2EB4F1FD0C2A
:1005F80088BFBCF5E06F1ED8BEF1004F08BF5FEAA8
:10060800500E50F1000041EB045170BD06F0004659
:1006180046EA010140EA020081EA0301B4EB5C0406
:10062800C2BFD4EB0C0541EA045170BD41F48011FE
:100638004FF0000E013C00F3AB8014F1360FDEBF23
:10064800002001F0004170BDC4F10004203C35DAFF
:100658000C341BDC04F11404C4F1200500FA05F382
:1006680020FA04F001FA05F240EA020001F0004223
:1006780021F0004110EBD37021FA04F642EB060199
:100688005EEA430E08BF20EAD37070BDC4F10C04C3
:10069800C4F1200500FA04F320FA05F001FA04F287
:1006A80040EA020001F0004110EBD37041F1000173
:1006B8005EEA430E08BF20EAD37070BDC4F120057E
:1006C80000FA05F24EEA020E20FA04F301FA05F2E6
:1006D80043EA020321FA04F001F0004121FA04F28E
:1006E80020EA020000EBD3705EEA430E08BF20EA5E
:1006F800D37070BD94F0000F0FD101F00046400098
:1007080041EB010111F4801F08BF013CF7D041EA19
:10071800060195F0000F18BF704703F0004652001D
:1007280043EB030313F4801F08BF013DF7D043EAEE
:100738000603704794EA0C0F0CEA135518BF95EAA4
:100748000C0F0CD050EA410618BF52EA4306D1D12B
:1007580081EA030101F000414FF0000070BD50EA4A
:10076800410606BF1046194652EA430619D094EAD4
:100778000C0F02D150EA013613D195EA0C0F05D1BE
:1007880052EA03361CBF104619460AD181EA030112
:1007980001F0004141F0FE4141F470014FF00000CA
:1007A80070BD41F0FE4141F4780170BD70B54FF065
:1007B800FF0C4CF4E06C1CEA11541DBF1CEA1355E5
:1007C80094EA0C0F95EA0C0F00F0A7F8A4EB0504C7
:1007D80081EA030E52EA03354FEA013100F08880BE
:1007E8004FEA03334FF0805545EA131343EA126387
:1007F8004FEA022245EA111545EA10654FEA00263C
:100808000EF000419D4208BF964244F1FD0404F5F4
:10081800407402D25B084FEA3202B61A65EB030550
:100828005B084FEA32024FF480104FF4002CB6EB0D
:10083800020E75EB030E22BFB61A754640EA0C008D
:100848005B084FEA3202B6EB020E75EB030E22BFCD
:10085800B61A754640EA5C005B084FEA3202B6EB0E
:10086800020E75EB030E22BFB61A754640EA9C00CD
:100878005B084FEA3202B6EB020E75EB030E22BF9D
:10088800B61A754640EADC0055EA060E18D04FEA5B
:10089800051545EA16754FEA06164FEAC30343EAFB
:1008A80052734FEAC2025FEA1C1CC0D111F4801FC8
:1008B8000BD141EA00014FF000004FF0004CB6E7C1
:1008C80011F4801F04BF01430020B4F1FD0C88BF60
:1008D800BCF5E06F3FF6AFAEB5EB030C04BFB6EB6B
:1008E800020C5FEA500C50F1000041EB045170BD5E
:1008F8000EF0004E4EEA113114EB5C04C2BFD4EB8B
:100908000C0541EA045170BD41F480114FF0000E0E
:10091800013C90E645EA060E8DE60CEA135594EA8A
:100928000C0F08BF95EA0C0F3FF43BAF94EA0C0F8D
:100938000AD150EA01347FF434AF95EA0C0F7FF402
:1009480025AF104619462CE795EA0C0F06D152EA56
:1009580003353FF4FDAE1046194622E750EA41063A
:1009680018BF52EA43067FF4C5AE50EA41047FF44B
:100978000DAF52EA43057FF4EBAE12E74FF0FF3CB0
:1009880006E000BF4FF0010C02E000BF4FF0010C81
:100998004DF804CD4FEA410C7FEA6C5C4FEA430CFA
:1009A80018BF7FEA6C5C1BD001B050EA410C0CBF49
:1009B80052EA430C91EA030F02BF90EA020F0020AB
:1009C800704710F1000F91EA030F58BF994208BF12
:1009D80090422CBFD8176FEAE37040F001007047CF
:1009E8004FEA410C7FEA6C5C02D150EA013C07D126
:1009F8004FEA430C7FEA6C5CD6D152EA033CD3D071
:100A08005DF8040B704700BF8446104662468C466A
:100A18001946634600E000BF01B5FFF7B7FF00289D
:100A280048BF10F1000F01BD4DF808EDFFF7F4FFC6
:100A38000CBF012000205DF808FB00BF4DF808ED51
:100A4800FFF7EAFF34BF012000205DF808FB00BF74
:100A58004DF808EDFFF7E0FF94BF012000205DF896
:100A680008FB00BF4DF808EDFFF7CEFF94BF01204B
:100A780000205DF808FB00BF4DF808EDFFF7C4FF44
:100A880034BF012000205DF808FB00BF4FEA410297
:100A980012F5001215D211D56FF47873B3EB6252C8
:100AA80012D94FEAC12343F0004343EA505311F0EF
:100AB800004F23FA02F018BF404270474FF0000081
:100AC800704750EA013005D111F0004008BF6FF0BF
:100AD800004070474FF00000704700BF4A0011D235
:100AE80012F5001211D20DD56FF47873B3EB625280
:100AF8000ED44FEAC12343F0004343EA505323FA8C
:100B080002F070474FF00000704750EA013002D100
:100B18004FF0FF3070474FF00000704780F0004002
:100B280002E000BF81F0004142001FBF5FEA4103BD
:100B380092EA030F7FEA226C7FEA236C6AD04FEABD
:100B48001262D2EB1363C1BFD21841404840414002
:100B5800B8BF5B42192B88BF704710F0004F40F4B4
:100B6800000020F07F4018BF404211F0004F41F4D0
:100B7800000121F07F4118BF494292EA030F3FD09C
:100B8800A2F1010241FA03FC10EB0C00C3F12003AF
:100B980001FA03F100F0004302D5494260EB40003E
:100BA800B0F5000F13D3B0F1807F06D340084FEAA9
:100BB800310102F10102FE2A51D2B1F1004F40EB9E
:100BC800C25008BF20F0010040EA03007047490006
:100BD80040EB0000013A28BFB0F5000FEDD2B0FAA3
:100BE80080FCACF1080CB2EB0C0200FA0CF0AABFC6
:100BF80000EBC25052421843BCBFD0401843704764
:100C080092F0000F81F4000106BF80F40000013269
:100C1800013BB5E74FEA41037FEA226C18BF7FEA40
:100C2800236C21D092EA030F04D092F0000F08BF82
:100C38000846704790EA010F1CBF0020704712F069
:100C48007F4F04D1400028BF40F00040704712F1A8
:100C580000723CBF00F50000704700F0004343F00D
:100C6800FE4040F4000070477FEA226216BF084643
:100C78007FEA23630146420206BF5FEA412390EA06
:100C8800010F40F4800070474FF0000304E000BFFC
:100C980010F0004348BF40425FEA000C08BF7047AD
:100CA80043F0964301464FF000001CE050EA010271
:100CB80008BF70474FF000030AE000BF50EA010286
:100CC80008BF704711F0004302D5404261EB410173
:100CD8005FEA010C02BF84460146002043F0B64398
:100CE80008BFA3F18053A3F50003BCFA8CF2083ABD
:100CF800A3EBC25310DB01FA02FC634400FA02FCC6
:100D0800C2F12002BCF1004F20FA02F243EB0200CC
:100D180008BF20F00100704702F1200201FA02FC2E
:100D2800C2F1200250EA4C0021FA02F243EB020021
:100D380008BF20EADC7070474FF0FF0C1CEAD05265
:100D48001EBF1CEAD15392EA0C0F93EA0C0F6FD026
:100D58001A4480EA010C400218BF5FEA41211ED004
:100D68004FF0006343EA501043EA5111A0FB0131F0
:100D78000CF00040B1F5000F3EBF490041EAD371C5
:100D88005B0040EA010062F17F02FD2A1DD8B3F141
:100D9800004F40EBC25008BF20F00100704790F0B0
:100DA800000F0CF0004C08BF49024CEA502040EA02
:100DB80051207F3AC2BFD2F1FF0340EAC2507047C8
:100DC80040F400004FF00003013A5DDC12F1190F06
:100DD800DCBF00F000407047C2F10002410021FA78
:100DE80002F1C2F1200200FA02FC5FEA310040F190
:100DF800000053EA4C0308BF20EADC70704792F009
:100E0800000F00F0004C02BF400010F4000F013A40
:100E1800F9D040EA0C0093F0000F01F0004C02BF3B
:100E2800490011F4000F013BF9D041EA0C018FE7AA
:100E38000CEAD15392EA0C0F18BF93EA0C0F0AD0B0
:100E480030F0004C18BF31F0004CD8D180EA0100D6
:100E580000F00040704790F0000F17BF90F0004F6F
:100E6800084691F0000F91F0004F14D092EA0C0F51
:100E780001D142020FD193EA0C0F03D14B0218BFE4
:100E8800084608D180EA010000F0004040F0FE402A
:100E980040F40000704740F0FE4040F440007047C6
:100EA8004FF0FF0C1CEAD0521EBF1CEAD15392EA45
:100EB8000C0F93EA0C0F69D0A2EB030280EA010C35
:100EC80049024FEA402037D04FF0805343EA1111CE
:100ED80043EA10130CF000408B4238BF5B0042F12C
:100EE8007D024FF4000C8B4224BF5B1A40EA0C00D1
:100EF800B3EB510F24BFA3EB510340EA5C00B3EB03
:100F0800910F24BFA3EB910340EA9C00B3EBD10FF0
:100F180024BFA3EBD10340EADC001B0118BF5FEA42
:100F28001C1CE0D1FD2A3FF650AF8B4240EBC2506B
:100F380008BF20F0010070470CF0004C4CEA50202C
:100F48007F32C2BFD2F1FF0340EAC250704740F47B
:100F580000004FF00003013A37E792F0000F00F06D
:100F6800004C02BF400010F4000F013AF9D040EAEB
:100F78000C0093F0000F01F0004C02BF490011F47F
:100F8800000F013BF9D041EA0C0195E70CEAD15377
:100F980092EA0C0F08D142027FF47DAF93EA0C0F5E
:100FA8007FF470AF084676E793EA0C0F04D14B0242
:100FB8003FF44CAF08466EE730F0004C18BF31F0F4
:100FC800004CCAD130F000427FF45CAF31F00043EE
:100FD8007FF43CAF5FE700BF4FF0FF3C06E000BF87
:100FE8004FF0010C02E000BF4FF0010C4DF804CDAA
:100FF8004FEA40024FEA41037FEA226C18BF7FEABA
:10100800236C11D001B052EA530C18BF90EA010FBB
:1010180058BFB2EB030088BFC81738BF6FEAE1704A
:1010280018BF40F0010070477FEA226C02D15FEAE6
:10103800402C05D17FEA236CE4D15FEA412CE1D052
:101048005DF8040B704700BF844608466146FFE719
:101058000FB5FFF7C9FF002848BF10F1000F0FBDFB
:101068004DF808EDFFF7F4FF0CBF012000205DF8F4
:1010780008FB00BF4DF808EDFFF7EAFF34BF012079
:1010880000205DF808FB00BF4DF808EDFFF7E0FF12
:1010980094BF012000205DF808FB00BF4DF808ED63
:1010A800FFF7D2FF94BF012000205DF808FB00BFC6
:1010B8004DF808EDFFF7C8FF34BF012000205DF8A8
:1010C80008FB00BF42000ED2B2F1FE4F0BD34FF027
:1010D8009E03B3EB126209D44FEA002343F00043A6
:1010E80023FA02F070474FF00000704712F1610FC9
:1010F80001D1420202D14FF0FF3070474FF000009B
:10110800704700BF53B94AB9002908BF00281CBF5F
:101118004FF0FF314FF0FF3000F00CB8ADF1080C84
:101128006DE904CE2CF080FDDDF804E0DDE9022352
:1011380004B07047704700BF80EA010C1CF0030F31
:1011480037D110F0030C20F0030021F0030150F810
:10115800042B08BF51F8043B0ED08CF0030C6FF041
:101168007F434FEACC0C23FA0CFC51F8043B42EACB
:101178000C0243EA0C0300BFA2F1013C9A4201BFF2
:101188002CEA020C1CF0803F50F8042B51F8043B69
:10119800F2D04FEA02604FEA1222012828BFB0EBD2
:1011A800036F08BF1B0AF4D003F0FF03000EC01A38
:1011B800704710F0030F0AD010F8012B11F8013B0B
:1011C800012A28BF9A42F4D0A2EB030070474DF8D9
:1011D800045D50F8042B01F0030521F0030151F8D8
:1011E800043B022D26D04DD822F07F45B5EB132FB6
:1011F800A2F1013C2CEA020C0DD11CF0803C08BF86
:1012080051F8043B0AD185EA0205B5EB036F0CD10E
:1012180050F8042BE8E74FEA13235BE03CF07F4CDF
:1012280054D10B784FEA126554E04FEA126503F087
:10123800FF034FE04FEA0245A2F1013C4FEA154592
:101248002CEA020CB5EB134F18D11CF0803C08BFF8
:1012580051F8043B07D185EA0205B5EB034F09D1E4
:1012680050F8042BE6E75FEA0C4C2FD10B884FEAC5
:1012780012452FE04FEA03434FEA12454FEA134362
:1012880028E000BF02F0FF05B5EB136FA2F1013CA7
:101298002CEA020C0DD11CF0803C08BF51F8043B2D
:1012A8000AD185EA0205B5EB032F0AD150F8042BC1
:1012B800E8E74FEA13630DE012F0FF0F06D051F88C
:1012C800043B4FEA122523F07F4303E04FF0000070
:1012D80020BC704705F0FF0203F0FF00012828BF7B
:1012E800904204BF2D0A1B0AF4D0A2EB000020BCD8
:1012F800704700BF844641EA000313F0030349D155
:10130800403A23D30B6803604B6843608B68836063
:10131800CB68C3600B6903614B6943618B69836167
:10132800CB69C3610B6A03624B6A43628B6A83624F
:10133800CB6AC3620B6B03634B6B43638B6B836337
:10134800CB6BC36340304031403ADBD230320BD3F1
:101358000B6803604B6843608B688360CB68C3602D
:1013680010301031103AF3D20C3205D351F8043B47
:1013780040F8043B043AF9D2043208D0D2071CBF23
:1013880011F8013B00F8013B01D30B88038060464C
:10139800704700BF082A13D38B07B1D010F003039E
:1013A800AED0C3F10403D21ADB071CBF11F8013B0E
:1013B80000F8013BA4D331F8023B20F8023B9FE739
:1013C800043AD9D3013A11F8013B00F8013BF9D2AC
:1013D8000B7803704B7843708B7883706046704746
:1013E8004FEA410C7FEA6C5C02D150EA013C0AD119
:1013F8004FEA430C7FEA6C5C02D152EA033C02D10B
:101408004FF0000070474FF0010070470348044B4D
:10141800834202D0034B03B118477047D807002016
:10142800D8070020000000000548064B1B1AD90FFA
:1014380001EBA301491002D0034B03B118477047D1
:10144800D8070020D80700200000000010B5064C7F
:10145800237843B9FFF7DAFF044B13B10448AFF31D
:1014680000800123237010BDD80700200000000071
:101478008059030808B5054B1BB105490548AFF36A
:101488000080BDE80840FFF7CFBF00BF00000000A4
:10149800DC0700208059030880B596B000AF78605B
:1014A800396007F110037B65194B3B6507E03A6D1E
:1014B800531C3B657B6D591C796512781A703B6D1E
:1014C8001B78002BF3D107E03A68531C3B607B6D17
:1014D800591C796512781A703B681B78002BF3D178
:1014E8007B6D5A1C7A655D221A707B6D00221A701A
:1014F800084A07F1080392E8030083E8030007F1AC
:1015080010031A4607F1080393E8030003F0BEFA34
:1015180098590308045A030880B584B000AFF860EE
:10152800B9607A604FF4D87003F0BEF803461A46E3
:10153800FB681A604FF4007003F0B6F803461A46C9
:10154800BB681A607B6880221A6000BF1037BD46EE
:1015580080BD80B584B000AFF860B9607A604FF4A0
:10156800D87003F0A1F803461A46FB681A604FF4D6
:10157800806003F099F803461A46BB681A607B68D6
:101588004FF480721A6000BF1037BD4680BD00005E
:1015980090B585B000AF78600023FB6025E01A495C
:1015A800FA6813465B0013449B000B440433186825
:1015B8001549FA6813465B0013449B000B44083333
:1015C8001B881C461049FA6813465B0013449B00AD
:1015D8000B441A680023214603F0B1FDB860B868CF
:1015E80003F008FEFB680133FB60084BB3F90030D9
:1015F8001A46FB689342D2DB03F0E4FF0023184647
:101608001437BD4690BD00BF54B3030884B3030824
:1016180080B586B000AF00F047FA03F03BF806F05B
:10162800D5FE00F03DF80023184A4FF480611848B1
:1016380003F085FD7861786903F0DCFD154A07F150
:101648000C0392E8030083E8030003F0C9F803469B
:10165800002B06D0104A07F10C0393E8030003F0AF
:1016680015FA0E4A3B1D92E8030083E803002AF0AE
:10167800DFFB0346012B05D0074A3B1D93E8030017
:1016880003F004FA29F090FAFEE700BF9915000864
:101698000C5A0308205A0308185A0308285A030842
:1016A80080B59AB000AF07F1400328220021184600
:1016B8002EF030FB07F12C0300221A605A609A6062
:1016C800DA601A6107F1140300221A605A609A60FE
:1016D800DA601A615A6101233B644FF480337B64FA
:1016E8000023BB6401233B650223FB654FF4803371
:1016F8003B664FF4E0137B6607F14003184600F0A1
:10170800C7FD0346002B0DD0184A07F10C0392E8D9
:10171800030083E80300164A07F10C0393E803006B
:1017280003F0B4F90F23FB6202233B6300237B63BE
:101738004FF48063BB630023FB6307F12C03022192
:10174800184601F027F80346002B0BD0094A3B1D29
:1017580092E8030083E80300054A3B1D93E8030071
:1017680003F094F900BF6837BD4680BD4C5A0308A2
:10177800305A0308545A030880B582B000AF786025
:101788007B681B68B3F1804F01D100F0A3F900BF5B
:101798000837BD4680BD000080B485B000AF154B4A
:1017A8009B69144A43F001039361124B9B6903F050
:1017B8000103BB60BB680F4BDB690E4A43F08053E3
:1017C800D3610C4BDB6903F080537B607B680A4B69
:1017D8005B68FB60FB6823F0E063FB60FB6843F039
:1017E8000073FB60044AFB68536000BF1437BD46B2
:1017F80080BC7047001002400000014080B58EB0E8
:1018080000AF78600023FB620023BB62002387F8E7
:101818003330344BDB69334A43F00103D361314B36
:10182800DB6903F00103FB60FB6807F1100207F1B5
:1018380014031146184601F01DF93B6AFB62FB6A66
:10184800002B03D101F0EEF8786304E001F0EAF828
:1018580003465B007B637B6B234AA2FB03239B0C41
:10186800013BBB62214B4FF080421A601F4B40F294
:10187800E732DA601D4ABB6A53601C4B00221A61CA
:101888001A4B00229A60194B00229A61174801F0FE
:101898003FF9034687F8333097F83330002B1BD1D4
:1018A800124801F09BF9034687F8333097F8333034
:1018B800002B11D11C2000F022FB7B680F2B08D8CD
:1018C800002279681C2000F0FEFA094A7B68136040
:1018D80002E0012387F8333097F833301846383759
:1018E800BD4680BD0010024083DE1B43F407002084
:1018F8000400002080B500AF024801F05FFB00BF84
:1019080080BD00BFF407002080B400AF00BFBD4613
:1019180080BC704780B400AF01231846BD4680BC28
:10192800704780B582B000AF786039602EF054FE01
:10193800034616221A604FF0FF3318460837BD4693
:1019480080BD80B582B000AF78604FF0FF31786815
:10195800FFF7E7FFFEE780B586B000AFF860B96033
:101968007A6000237B610AE0AFF300800146BB6820
:101978005A1CBA60CAB21A707B6901337B617A69F2
:101988007B689A42F0DB7B6818461837BD4680BDF5
:1019980080B483B000AF78604FF0FF3318460C373F
:1019A800BD4680BC704780B483B000AF78603960B2
:1019B8003B684FF400525A60002318460C37BD4666
:1019C80080BC704780B483B000AF786001231846AC
:1019D8000C37BD4680BC704780B485B000AFF86056
:1019E800B9607A60002318461437BD4680BC70473A
:1019F80080B586B000AF7860144A154BD31A7B6166
:101A08007B693B61134B1B68002B02D1114B124AB7
:101A18001A60104B1A687B6813443A699A4207D2D5
:101A28002EF0DAFD03460C221A604FF0FF3309E06E
:101A3800084B1B68FB60074B1A687B681344054A10
:101A48001360FB6818461837BD4680BD00000120AA
:101A580000040000A808002028DE0020FFF754FF3B
:101A68000B480C490C4A002302E0D458C4500433F4
:101A7800C4188C42F9D3094A094C002301E01360C9
:101A88000432A242FBD32EF0ADFDFFF7C1FD704733
:101A980000000020D807002054BF0308D807002002
:101AA80024DE0020FEE7000080B500AF084B1B686D
:101AB800074A43F010031360032000F0F9F90F20E0
:101AC800FFF79CFEFFF768FE0023184680BD00BFA5
:101AD8000020024080B400AF054B1B781A46054B26
:101AE8001B681344034A136000BFBD4680BC70479F
:101AF80008000020AC08002080B400AF024B1B682F
:101B08001846BD4680BC7047AC08002080B489B038
:101B180000AFF860B9607A603B60FB6893F82030EA
:101B2800FB77FB681B689B68BB61FB7F012B03D0BD
:101B3800FB7F022B40F0AD80BB6903F08063002B74
:101B48000AD1BB6903F00063002B05D1BB6903F020
:101B58008053002B00F09580BB691B0E03F0030334
:101B68007B6101227B699A403B681A60BB689B686D
:101B7800002B0DD1BB681B685A05BB68DB68F96888
:101B880009681A437B6918331B010B441A600FE07C
:101B9800BB685B68DA00BB689B681A43BB68DB6894
:101BA800F96809681A437B6918331B010B441A60EA
:101BB800FB681968BB681A697B6918331B010B44F9
:101BC80004331A60BB681B7D012B11D1FB681A68AE
:101BD8007B6918331B01134404331B68FA681168C6
:101BE80043F480727B6918331B010B4404331A6079
:101BF8007B6807331B781A067B6806331B781B043F
:101C08001A437B6805331B781B0213437A68043236
:101C180012781046FA68116843EA00027B691B01D2
:101C28000B4403F5C6731A607B6803331B781A06E6
:101C38007B6802331B781B041A437B6801331B78CB
:101C48001B0213437A6812781046FA68116843EA4F
:101C580000027B691B010B4403F5C4731A60FB681F
:101C68001A687B6918331B0113441B68FA681168EA
:101C780043F001027B6918331B010B441A600023EF
:101C88000EE0FB685B6A43F40012FB685A620123AA
:101C980006E0FB685B6A43F48022FB685A62012312
:101CA80018462437BD4680BC704780B485B000AF65
:101CB80078600023FB607B6893F82030FB72FB7A26
:101CC800012B02D0FB7A022B1DD17B681B689B6815
:101CD80003F08063002B02D0FB680133FB607B6854
:101CE8001B689B6803F00063002B02D0FB6801337C
:101CF800FB607B681B689B6803F08053002B02D055
:101D0800FB680133FB60FB6818461437BD4680BC8E
:101D18007047000080B485B000AF78607B6803F03E
:101D28000703FB600C4BDB68BB60BA684FF6FF0328
:101D38001340BB60FB681A02BB68134343F0BF63E0
:101D480043F40033BB60044ABB68D36000BF143758
:101D5800BD4680BC704700BF00ED00E080B400AF16
:101D6800044BDB681B0A03F007031846BD4680BC1A
:101D7800704700BF00ED00E080B483B000AF0346B9
:101D8800FB7197F90730002B0BDBFB7903F01F027F
:101D9800064997F907305B09012000FA02F241F879
:101DA800232000BF0C37BD4680BC704700E100E02F
:101DB80080B483B000AF0346FB7197F90730002B5E
:101DC80012DBFB7903F01F020A4997F907305B0918
:101DD800012000FA02F2203341F82320BFF34F8F8D
:101DE80000BFBFF36F8F00BF00BF0C37BD4680BC7C
:101DF800704700BF00E100E080B483B000AF034645
:101E08003960FB7197F90730002B0ADB3B68DAB2BF
:101E18000C4997F907301201D2B20B4483F800231A
:101E28000AE03B68DAB20849FB7903F00F03043B88
:101E38001201D2B20B441A7600BF0C37BD4680BCE3
:101E4800704700BF00E100E000ED00E080B489B019
:101E580000AFF860B9607A60FB6803F00703FB61C4
:101E6800FB69C3F10703042B28BF0423BB61FB698B
:101E78000433062B02D9FB69033B00E000237B6196
:101E88004FF0FF32BB6902FA03F3DA43BB681A402A
:101E98007B699A404FF0FF317B6901FA03F3D9431C
:101EA8007B680B40134318462437BD4680BC7047F7
:101EB80080B582B000AF78607868FFF72BFF00BF6D
:101EC8000837BD4680BD80B586B000AF0346B9600F
:101ED8007A60FB7300237B61FFF740FF78617A68C3
:101EE800B9687869FFF7B2FF024697F90F301146D3
:101EF8001846FFF781FF00BF1837BD4680BD80B583
:101F080082B000AF0346FB7197F907301846FFF718
:101F180033FF00BF0837BD4680BD80B582B000AF33
:101F28000346FB7197F907301846FFF741FF00BFDA
:101F38000837BD4680BD000080B48BB000AF786024
:101F4800396000237B6200233B6279E101227B6ACE
:101F580002FA03F3FB613B681B68FA691340BB6133
:101F6800BA69FB699A4240F068813B685B68964AA7
:101F780093425ED0944A934275D8944A934258D07B
:101F8800924A93426FD8924A934252D0904A9342CF
:101F980069D8904A93424CD08E4A934263D88E4A6D
:101FA800934246D08C4A93425DD8122B2AD8122BE2
:101FB80059D801A252F823F03B2000081520000848
:101FC80027200008692000086F2000086F200008FB
:101FD8006F2000086F2000086F2000086F2000089D
:101FE8006F2000086F2000086F2000086F2000088D
:101FF8006F2000086F2000086F2000081D200008CF
:1020080031200008754A934213D02CE03B68DB6806
:102018003B6229E03B68DB6804333B6224E03B68B1
:10202800DB6808333B621FE03B68DB680C333B62CC
:102038001AE03B689B68002B02D104233B6213E043
:102048003B689B68012B05D108233B627B68FA69D2
:102058001A6109E008233B627B68FA695A6103E068
:1020680000233B6200E000BFBB69FF2B01D87B68FF
:1020780001E07B6804337B61BB69FF2B02D87B6A74
:102088009B0002E07B6A083B9B003B617B691A6806
:102098000F213B6901FA03F3DB431A40396A3B69B4
:1020A80001FA03F31A437B691A603B685B6803F023
:1020B8008053002B00F0C180494B9B69484A43F08C
:1020C80001039361464B9B6903F00103BB60BB6846
:1020D800444A7B6A9B08023352F82330FB607B6AD0
:1020E80003F003039B000F2202FA03F3DB43FA68B1
:1020F8001340FB607B683C4A93421FD07B683B4A95
:10210800934219D07B683A4A934213D07B68394A84
:1021180093420DD07B68384A934207D07B68374A90
:10212800934201D105230AE0062308E0042306E0D0
:10213800032304E0022302E0012300E000237A6A7B
:1021480002F0030292009340FA681343FB602549AA
:102158007B6A9B080233FA6841F823203B685B6876
:1021680003F48013002B06D0254B9A682449BB69D9
:1021780013438B6006E0224B9A68BB69DB43204916
:1021880013408B603B685B6803F40013002B06D098
:102198001B4BDA681A49BB691343CB6006E0184B3E
:1021A800DA68BB69DB4316491340CB603B685B6860
:1021B80003F40033002B25D0114B5A681049BB6932
:1021C80013434B6025E000BF0000321000003110BF
:1021D8000000221000002110000012100000111051
:1021E800001002400000014000080140000C0140BE
:1021F800001001400014014000180140001C01407B
:1022080000040140154B5A68BB69DB43134913406E
:102218004B603B685B6803F48033002B06D00F4BA0
:102228001A680E49BB6913430B6006E00B4B1A682A
:10223800BB69DB43094913400B607B6A01337B624E
:102248003B681A687B6A22FA03F3002B7FF47EAEA0
:1022580000BF00BF2C37BD4680BC7047000401405A
:1022680080B483B000AF78600B467B8013467B70E8
:102278007B78002B03D07A887B681A6103E07B881F
:102288001A047B681A6100BF0C37BD4680BC7047D2
:1022980080B586B000AF78607B68002B01D1012340
:1022A80072E27B681B6803F00103002B00F0878053
:1022B800924B5B6803F00C03042B0CD08F4B5B68CC
:1022C80003F00C03082B12D18C4B5B6803F48033AA
:1022D800B3F5803F0BD1894B1B6803F40033002B07
:1022E8006CD07B685B68002B68D101234CE27B686B
:1022F8005B68B3F5803F06D1804B1B687F4A43F487
:10230800803313602EE07B685B68002B0CD17B4B1D
:102318001B687A4A23F480331360784B1B68774A2A
:1023280023F4802313601DE07B685B68B3F5A02F5E
:102338000CD1724B1B68714A43F4802313606F4BB6
:102348001B686E4A43F4803313600BE06B4B1B68C9
:102358006A4A23F480331360684B1B68674A23F486
:10236800802313607B685B68002B13D0FFF7C4FBE6
:10237800386108E0FFF7C0FB02463B69D31A642BBB
:1023880001D9032300E25D4B1B6803F40033002BE3
:10239800F0D014E0FFF7B0FB386108E0FFF7ACFBC2
:1023A80002463B69D31A642B01D90323ECE1534B52
:1023B8001B6803F40033002BF0D100E000BF7B68FA
:1023C8001B6803F00203002B63D04C4B5B6803F0DF
:1023D8000C03002B0BD0494B5B6803F00C03082B54
:1023E8001CD1464B5B6803F48033002B16D1434B5A
:1023F8001B6803F00203002B05D07B681B69012BC7
:1024080001D00123C0E13D4B1B6823F0F8027B6833
:102418005B69DB00394913430B603AE07B681B6951
:10242800002B20D0364B01221A60FFF765FB38617C
:1024380008E0FFF761FB02463B69D31A022B01D97A
:102448000323A1E12D4B1B6803F00203002BF0D0FE
:102458002A4B1B6823F0F8027B685B69DB0027497D
:1024680013430B6015E0264B00221A60FFF744FB6C
:10247800386108E0FFF740FB02463B69D31A022B9C
:1024880001D9032380E11D4B1B6803F00203002BD5
:10249800F0D17B681B6803F00803002B3AD07B68F7
:1024A8009B69002B19D0174B01221A60FFF724FBF8
:1024B800386108E0FFF720FB02463B69D31A022B7C
:1024C80001D9032360E10D4B5B6A03F00203002B83
:1024D800F0D0012000F0FEFA1CE00A4B00221A603E
:1024E800FFF70AFB38610FE0FFF706FB02463B697E
:1024F800D31A022B08D9032346E100BF001002407B
:102508000000424280044242924B5B6A03F002039D
:10251800002BE9D17B681B6803F00403002B00F053
:10252800A6800023FB758B4BDB6903F08053002BDF
:102538000DD1884BDB69874A43F08053D361854BC3
:10254800DB6903F08053BB60BB680123FB75824BDA
:102558001B6803F48073002B18D17F4B1B687E4ADD
:1025680043F480731360FFF7C7FA386108E0FFF798
:10257800C3FA02463B69D31A642B01D9032303E14A
:10258800754B1B6803F48073002BF0D07B68DB6805
:10259800012B06D16F4B1B6A6E4A43F0010313628D
:1025A8002DE07B68DB68002B0CD16A4B1B6A694AFB
:1025B80023F001031362674B1B6A664A23F0040386
:1025C80013621CE07B68DB68052B0CD1614B1B6A2E
:1025D800604A43F0040313625E4B1B6A5D4A43F092
:1025E800010313620BE05B4B1B6A5A4A23F0010399
:1025F8001362584B1B6A574A23F0040313627B6823
:10260800DB68002B15D0FFF777FA38610AE0FFF78F
:1026180073FA02463B69D31A41F28832934201D9D0
:102628000323B1E04B4B1B6A03F00203002BEED0EF
:1026380014E0FFF761FA38610AE0FFF75DFA024635
:102648003B69D31A41F28832934201D903239BE0B4
:10265800404B1B6A03F00203002BEED1FB7D012BDC
:1026680005D13C4BDB693B4A23F08053D3617B683F
:10267800DB69002B00F08780364B5B6803F00C03A6
:10268800082B61D07B68DB69022B46D1334B0022D3
:102698001A60FFF731FA386108E0FFF72DFA0246B1
:1026A8003B69D31A022B01D903236DE0294B1B6820
:1026B80003F00073002BF0D17B681B6AB3F5803FF1
:1026C80008D1244B5B6823F400327B689B6821495E
:1026D80013434B601F4B5B6823F474127B68196AC1
:1026E8007B685B6A0B431B4913434B601B4B0122FE
:1026F8001A60FFF701FA386108E0FFF7FDF90246B2
:102708003B69D31A022B01D903233DE0114B1B6807
:1027180003F00073002BF0D035E0104B00221A6054
:10272800FFF7EAF9386108E0FFF7E6F902463B6986
:10273800D31A022B01D9032326E0064B1B6803F0AA
:102748000073002BF0D11EE07B68DB69012B07D1F9
:10275800012319E00010024000700040600042426E
:102768000B4B5B68FB60FB6803F480327B681B6A79
:102778009A4206D1FB6803F470127B685B6A9A423E
:1027880001D0012300E0002318461837BD4680BD5C
:102798000010024080B584B000AF786039607B6873
:1027A800002B01D10123D0E06A4B1B6803F007031B
:1027B8003A689A4210D9674B1B6823F007026549AB
:1027C8003B6813430B60634B1B6803F007033A68CD
:1027D8009A4201D00123B8E07B681B6803F002032A
:1027E800002B20D07B681B6803F00403002B05D066
:1027F800594B5B68584A43F4E06353607B681B6835
:1028080003F00803002B05D0534B5B68524A43F48E
:1028180060535360504B5B6823F0F0027B689B6801
:102828004D4913434B607B681B6803F00103002B81
:1028380040D07B685B68012B07D1474B1B6803F4CA
:102848000033002B15D101237FE07B685B68022BE6
:1028580007D1414B1B6803F00073002B09D10123FA
:1028680073E03D4B1B6803F00203002B01D10123E9
:102878006BE0394B5B6823F003027B685B68364981
:1028880013434B60FFF738F9F8600AE0FFF734F9B3
:102898000246FB68D31A41F28832934201D90323D6
:1028A80053E02D4B5B6803F00C027B685B689B0070
:1028B8009A42EBD1274B1B6803F007033A689A4208
:1028C80010D2244B1B6823F0070222493B681343AC
:1028D8000B60204B1B6803F007033A689A4201D04B
:1028E800012332E07B681B6803F00403002B08D047
:1028F800194B5B6823F4E0627B68DB681649134375
:102908004B607B681B6803F00803002B09D0124B4F
:102918005B6823F460527B681B69DB000E49134334
:102928004B6000F021F802460B4B5B681B0903F073
:102938000F030A49CB5C22FA03F3094A1360094BD7
:102948001B681846FEF75AFF002318461037BD4685
:1029580080BD00BF002002400010024028B30308D9
:10296800000000200400002080B487B000AF0023DE
:10297800FB600023BB6000237B6100237B60002396
:102988003B611E4B5B68FB60FB6803F00C03042B88
:1029980002D0082B03D027E0194B3B6127E0FB68E6
:1029A8009B0C03F00F03174AD35C7B60FB6803F4AE
:1029B8008033002B10D0114B5B685B0C03F00103D4
:1029C800114AD35CBB607B680D4A03FB02F2BB680B
:1029D800B2FBF3F37B6104E07B680C4A02FB03F370
:1029E8007B617B693B6102E0054B3B6100BF3B6952
:1029F80018461C37BD4680BC704700BF0010024017
:102A080000127A0040B3030850B3030800093D00E0
:102A180080B400AF024B1B681846BD4680BC7047A7
:102A28000000002080B500AFFFF7F2FF0246054B1B
:102A38005B681B0A03F007030349CB5C22FA03F324
:102A4800184680BD0010024038B3030880B500AFB7
:102A5800FFF7DEFF0246054B5B68DB0A03F007035E
:102A68000349CB5C22FA03F3184680BD00100240EC
:102A780038B3030880B483B000AF786039607B68EE
:102A88000F221A60114B5B6803F003027B685A60DF
:102A98000E4B5B6803F0F0027B689A600B4B5B6837
:102AA80003F4E0627B68DA60084B5B68DB0803F4D8
:102AB800E0627B681A61064B1B6803F007023B68FB
:102AC8001A6000BF0C37BD4680BC7047001002403A
:102AD8000020024080B485B000AF78600A4B1B68C4
:102AE8000A4AA2FB03235B0A7A6802FB03F3FB6032
:102AF80000BFFB685A1EFA60002BF9D100BF00BF67
:102B08001437BD4680BC704700000020D34D6210CA
:102B180080B582B000AF78607B68002B01D10123BB
:102B28004CE07B6893F83D30DBB2002B11D17B6819
:102B3800002283F83C20786801F076F97B689B6C6A
:102B4800002B02D17B681F4A9A647B689B6C78686B
:102B580098477B68022283F83D207B681A687B6867
:102B680004331946104600F04DFE7B68012283F8B5
:102B780046207B68012283F83E207B68012283F887
:102B88003F207B68012283F840207B68012283F87C
:102B980041207B68012283F842207B68012283F868
:102BA80043207B68012283F844207B68012283F854
:102BB80045207B68012283F83D200023184608370A
:102BC800BD4680BDD12B000880B483B000AF7860CB
:102BD80000BF0C37BD4680BC7047000080B485B08C
:102BE80000AF78607B6893F83D30DBB2012B01D0F1
:102BF800012344E07B68022283F83D207B681B6840
:102C0800DA687B681B6842F00102DA607B681B683F
:102C18001D4A934218D07B681B681C4A934213D004
:102C28007B681B68B3F1804F0ED07B681B68184A1D
:102C3800934209D07B681B68164A934204D07B688C
:102C48001B68154A934211D17B681B689B6803F087
:102C58000703FB60FB68062B10D07B681B681A68AB
:102C68007B681B6842F001021A6007E07B681B68FA
:102C78001A687B681B6842F001021A600023184634
:102C88001437BD4680BC7047002C01400034014019
:102C98000004004000080040000C004080B582B0ED
:102CA80000AF78607B68002B01D101234CE07B6882
:102CB80093F83D30DBB2002B11D17B68002283F8FA
:102CC8003C20786801F0B0F87B681B6E002B02D1BD
:102CD8007B681F4A1A667B681B6E786898477B6812
:102CE800022283F83D207B681A687B680433194602
:102CF800104600F087FD7B68012283F846207B6838
:102D0800012283F83E207B68012283F83F207B68FC
:102D1800012283F840207B68012283F841207B68E8
:102D2800012283F842207B68012283F843207B68D4
:102D3800012283F844207B68012283F845207B68C0
:102D4800012283F83D20002318460837BD4680BD80
:102D58005D2D000880B483B000AF786000BF0C37E9
:102D6800BD4680BC7047000080B584B000AF786075
:102D780039603B68002B09D17B6893F83E30DBB2A1
:102D8800012B14BF01230023DBB222E03B68042B94
:102D980009D17B6893F83F30DBB2012B14BF0123C4
:102DA8000023DBB215E03B68082B09D17B6893F858
:102DB8004030DBB2012B14BF01230023DBB208E053
:102DC8007B6893F84130DBB2012B14BF0123002349
:102DD800DBB2002B01D0012372E03B68002B04D149
:102DE8007B68022283F83E2013E03B68042B04D161
:102DF8007B68022283F83F200BE03B68082B04D154
:102E08007B68022283F8402003E07B68022283F873
:102E180041207B681B6801223968184600F0DFFFF3
:102E28007B681B68284A934204D07B681B68274A42
:102E3800934201D1012300E00023002B07D07B68D7
:102E48001B685A6C7B681B6842F400425A647B68B2
:102E58001B681D4A934218D07B681B681B4A934223
:102E680013D07B681B68B3F1804F0ED07B681B685A
:102E7800174A934209D07B681B68164A934204D0CC
:102E88007B681B68144A934211D17B681B689B6856
:102E980003F00703FB60FB68062B10D07B681B68F8
:102EA8001A687B681B6842F001021A6007E07B68B9
:102EB8001B681A687B681B6842F001021A600023CD
:102EC80018461037BD4680BD002C01400034014033
:102ED8000004004000080040000C004080B582B0AB
:102EE80000AF786039607B681B6800223968184633
:102EF80000F075FF7B681B682E4A934204D07B68FC
:102F08001B682D4A934201D1012300E00023002BC6
:102F180017D07B681B681A6A41F211131340002B03
:102F28000FD17B681B681A6A40F244431340002B98
:102F380007D17B681B685A6C7B681B6822F40042C7
:102F48005A647B681B681A6A41F211131340002BFC
:102F58000FD17B681B681A6A40F244431340002B68
:102F680007D17B681B681A687B681B6822F001021E
:102F78001A603B68002B04D17B68012283F83E204D
:102F880013E03B68042B04D17B68012283F83F20BF
:102F98000BE03B68082B04D17B68012283F84020B2
:102FA80003E07B68012283F8412000231846083794
:102FB800BD4680BD002C01400034014080B584B07E
:102FC80000AF78607B681B68DB68FB607B681B6808
:102FD8001B69BB60BB6803F00203002B26D0FB68AB
:102FE80003F00203002B21D07B681B686FF00202FC
:102FF8001A617B6801221A777B681B689B6903F05A
:103008000303002B05D07B68D3F890307868984785
:1030180009E07B68D3F89830786898477B68D3F8DC
:103028009C30786898477B6800221A77BB6803F061
:103038000403002B26D0FB6803F00403002B21D0E7
:103048007B681B686FF004021A617B6802221A779A
:103058007B681B689B6903F44073002B05D07B6871
:10306800D3F890307868984709E07B68D3F89830AF
:10307800786898477B68D3F89C30786898477B686D
:1030880000221A77BB6803F00803002B26D0FB68E0
:1030980003F00803002B21D07B681B686FF008023F
:1030A8001A617B6804221A777B681B68DB6903F066
:1030B8000303002B05D07B68D3F8903078689847D5
:1030C80009E07B68D3F89830786898477B68D3F82C
:1030D8009C30786898477B6800221A77BB6803F0B1
:1030E8001003002B26D0FB6803F01003002B21D01F
:1030F8007B681B686FF010021A617B6808221A77D8
:103108007B681B68DB6903F44073002B05D07B6880
:10311800D3F890307868984709E07B68D3F89830FE
:10312800786898477B68D3F89C30786898477B68BC
:1031380000221A77BB6803F00103002B0ED0FB684E
:1031480003F00103002B09D07B681B686FF00102B4
:103158001A617B68D3F8803078689847BB6803F0B9
:103168008003002B0ED0FB6803F08003002B09D0EE
:103178007B681B686FF080021A617B68D3F8B030F7
:1031880078689847BB6803F04003002B0ED0FB68B3
:1031980003F04003002B09D07B681B686FF04002E6
:1031A8001A617B68D3F8883078689847BB6803F061
:1031B8002003002B0ED0FB6803F02003002B09D05E
:1031C8007B681B686FF020021A617B68D3F8A8300F
:1031D8007868984700BF1037BD4680BD80B586B077
:1031E80000AFF860B9607A600023FB75FB6893F85C
:1031F8003C30012B01D10223AEE0FB68012283F8A9
:103208003C207B680C2B00F29F8001A252F823F02F
:103218004D3200085133000851330008513300087B
:103228008D3200085133000851330008513300082B
:10323800CF320008513300085133000851330008D9
:103248000F330008FB681B68B968184600F05AFB82
:10325800FB681B689A69FB681B6842F008029A6160
:10326800FB681B689A69FB681B6822F004029A6174
:10327800FB681B689969BB681A69FB681B680A4385
:103288009A6164E0FB681B68B968184600F0ACFBFB
:10329800FB681B689A69FB681B6842F400629A61C4
:1032A800FB681B689A69FB681B6822F480629A6154
:1032B800FB681B689969BB681B691A02FB681B6875
:1032C8000A439A6143E0FB681B68B968184600F036
:1032D80001FCFB681B68DA69FB681B6842F008029E
:1032E800DA61FB681B68DA69FB681B6822F0040274
:1032F800DA61FB681B68D969BB681A69FB681B68D7
:103308000A43DA6123E0FB681B68B968184600F0D5
:1033180057FCFB681B68DA69FB681B6842F40062AB
:10332800DA61FB681B68DA69FB681B6822F4806253
:10333800DA61FB681B68D969BB681B691A02FB68FC
:103348001B680A43DA6102E00123FB7500BFFB68D2
:10335800002283F83C20FB7D18461837BD4680BD07
:1033680080B584B000AF786039600023FB737B6858
:1033780093F83C30012B01D10223B4E07B68012291
:1033880083F83C207B68022283F83D207B681B6819
:103398009B68BB60BB6823F07703BB60BB6823F402
:1033A8007F43BB607B681B68BA689A603B681B6890
:1033B800B3F5005F3ED0B3F5005F00F28780B3F548
:1033C800805F00F08680B3F5805F7FD8702B1AD0BD
:1033D800702B7BD8602B50D0602B77D8502B3CD0EB
:1033E800502B73D8402B58D0402B6FD8302B64D03B
:1033F800302B6BD8202B60D0202B67D8002B5CD0CB
:10340800102B5AD062E07B6818683B6899683B6863
:103418005A683B68DB6800F0C3FC7B681B689B68E4
:10342800BB60BB6843F07703BB607B681B68BA6806
:103438009A604FE07B6818683B6899683B685A68EF
:103448003B68DB6800F0ACFC7B681B689A687B68AB
:103458001B6842F480429A603CE07B6818683B68CD
:1034680059683B68DB681A4600F0FEFB7B681B68FE
:103478005021184600F07AFC2CE07B6818683B68FD
:1034880059683B68DB681A4600F02EFC7B681B68AD
:103498006021184600F06AFC1CE07B6818683B68ED
:1034A80059683B68DB681A4600F0DEFB7B681B68DE
:1034B8004021184600F05AFC0CE07B681A683B680B
:1034C8001B681946104600F051FC03E00123FB730A
:1034D80000E000BF7B68012283F83D207B68002262
:1034E80083F83C20FB7B18461037BD4680BD80B46E
:1034F80083B000AF786000BF0C37BD4680BC704712
:1035080080B483B000AF786000BF0C37BD4680BC84
:10351800704780B483B000AF786000BF0C37BD46F9
:1035280080BC704780B483B000AF786000BF0C37B0
:10353800BD4680BC704780B483B000AF786000BFE0
:103548000C37BD4680BC704780B483B000AF78604C
:1035580000BF0C37BD4680BC704780B483B000AF55
:10356800786000BF0C37BD4680BC704780B483B01C
:1035780000AF786000BF0C37BD4680BC704780B490
:1035880083B000AF786000BF0C37BD4680BC704781
:1035980080B487B000AFF8600B467A60FB720023F6
:1035A800FB757B68002B01D1012325E1FB6893F8AB
:1035B8003D30DBB2012B40F0B980FB7A1A2B00F2C8
:1035C800B28001A252F823F03D36000845360008C3
:1035D8004D360008553600085D3600086536000887
:1035E8006D360008753600087D36000885360008F7
:1035F8008D360008953600089D360008A536000867
:10360800AD360008B7360008C1360008CB360008CA
:10361800D5360008DF360008E9360008F33600081A
:10362800FD36000807370008113700081B37000867
:1036380025370008FB687A689A64DCE0FB687A68DA
:10364800DA64D8E0FB687A681A65D4E0FB687A68BF
:103658005A65D0E0FB687A689A65CCE0FB687A68BE
:10366800DA65C8E0FB687A681A66C4E0FB687A68BD
:103678005A66C0E0FB687A689A66BCE0FB687A68BC
:10368800DA66B8E0FB687A681A67B4E0FB687A68BB
:103698005A67B0E0FB687A689A67ACE0FB687A68BA
:1036A800DA67A8E0FB687A68C3F88020A3E0FB68C3
:1036B8007A68C3F884209EE0FB687A68C3F888209B
:1036C80099E0FB687A68C3F88C2094E0FB687A6814
:1036D800C3F890208FE0FB687A68C3F894208AE0EA
:1036E800FB687A68C3F8982085E0FB687A68C3F8B5
:1036F8009C2080E0FB687A68C3F8A0207BE0FB6828
:103708007A68C3F8A42076E0FB687A68C3F8A82032
:1037180071E0FB687A68C3F8AC206CE0FB687A68F3
:10372800C3F8B02067E00123FB7564E0FB6893F8F9
:103738003D30DBB2002B5CD1FB7A0D2B56D801A2B1
:1037480052F823F0853700088D37000895370008B0
:103758009D370008A5370008AD370008B5370008C1
:10376800BD370008C5370008CD370008D537000831
:10377800DD370008E5370008ED370008FB687A6890
:103788009A6438E0FB687A68DA6434E0FB687A683F
:103798001A6530E0FB687A685A652CE0FB687A683D
:1037A8009A6528E0FB687A68DA6524E0FB687A683D
:1037B8001A6620E0FB687A685A661CE0FB687A683B
:1037C8009A6618E0FB687A68DA6614E0FB687A683B
:1037D8001A6710E0FB687A685A670CE0FB687A6839
:1037E8009A6708E0FB687A68DA6704E00123FB75EA
:1037F80001E00123FB75FB7D18461C37BD4680BCE4
:10380800704700BF80B485B000AF786039607B68CE
:103818001B68FB607B68364A934213D07B68354A45
:1038280093420FD07B68B3F1804F0BD07B68324A4C
:10383800934207D07B68314A934203D07B68304A71
:10384800934208D1FB6823F07003FB603B685B6818
:10385800FA681343FB607B68254A934213D07B6860
:10386800244A93420FD07B68B3F1804F0BD07B681A
:10387800214A934207D07B68204A934203D07B6851
:103888001F4A934208D1FB6823F44073FB603B68EE
:10389800DB68FA681343FB60FB6823F080023B682F
:1038A8005B691343FB603B689A687B68DA623B6834
:1038B8001A687B689A627B680D4A934203D07B68DA
:1038C8000C4A934203D13B681A697B681A637B6888
:1038D8001B6843F004027B681A607B6801225A6106
:1038E8007B68FA681A6000BF1437BD4680BC704711
:1038F800002C014000340140000400400008004052
:10390800000C004080B487B000AF786039607B68F5
:103918001B6A7B617B681B6A23F001027B681A6261
:103928007B685B683B617B689B69FB60FB6823F095
:103938007003FB60FB6823F00303FB603B681B68B4
:10394800FA681343FB607B6923F002037B613B68E1
:103958009B687A6913437B617B68214A934203D051
:103968007B68204A93420ED17B681B6A23F00402CD
:103978007B681A627B6923F008037B613B68DB681C
:103988007A6913437B617B68154A934203D07B684D
:10399800144A934211D13B6923F480733B613B691C
:1039A80023F400733B613B685B693A6913433B61ED
:1039B8003B689B693A6913433B617B683A695A6083
:1039C8007B68FA689A613B685A687B685A637B68C7
:1039D8007A691A6200BF1C37BD4680BC704700BFB9
:1039E800002C01400034014080B487B000AF7860FB
:1039F80039607B681B6A7B617B681B6A23F0100255
:103A08007B681A627B685B683B617B689B69FB60CB
:103A1800FB6823F4E043FB60FB6823F44073FB601E
:103A28003B681B681B02FA681343FB607B6923F041
:103A380020037B613B689B681B017A6913437B61A8
:103A48007B68224A934203D07B68214A93420FD174
:103A58007B681B6A23F040027B681A627B6923F04B
:103A680080037B613B68DB681B017A6913437B61D8
:103A78007B68164A934203D07B68154A934213D158
:103A88003B6923F480633B613B6923F400633B613A
:103A98003B685B699B003A6913433B613B689B69E0
:103AA8009B003A6913433B617B683A695A607B68BB
:103AB800FA689A613B685A687B689A637B687A6996
:103AC8001A6200BF1C37BD4680BC7047002C0140FD
:103AD8000034014080B487B000AF786039607B68FB
:103AE8001B6A7B617B681B6A23F480727B681A629D
:103AF8007B685B683B617B68DB69FB60FB6823F084
:103B08007003FB60FB6823F00303FB603B681B68E2
:103B1800FA681343FB607B6923F400737B613B689D
:103B28009B681B027A6913437B617B68224A934234
:103B380003D07B68214A93420FD17B681B6A23F428
:103B480080627B681A627B6923F400637B613B684F
:103B5800DB681B027A6913437B617B68164A9342D0
:103B680003D07B68154A934213D13B6923F48053F1
:103B78003B613B6923F400533B613B685B691B0174
:103B88003A6913433B613B689B691B013A691343DC
:103B98003B617B683A695A607B68FA68DA613B681E
:103BA8005A687B68DA637B687A691A6200BF1C37D7
:103BB800BD4680BC704700BF002C01400034014066
:103BC80080B487B000AF786039607B681B6A3B615E
:103BD8007B681B6A23F480527B681A627B685B6887
:103BE8007B617B68DB69FB60FB6823F4E043FB6077
:103BF800FB6823F44073FB603B681B681B02FA6890
:103C08001343FB603B6923F400533B613B689B68AB
:103C18001B033A6913433B617B68114A934203D003
:103C28007B68104A934209D17B6923F480437B6106
:103C38003B685B699B017A6913437B617B687A699E
:103C48005A607B68FA68DA613B685A687B681A646C
:103C58007B683A691A6200BF1C37BD4680BC704752
:103C6800002C01400034014080B487B000AFF860F8
:103C7800B9607A60FB681B6A7B61FB681B6A23F08A
:103C88000102FB681A62FB68154A934203D0FB687D
:103C9800144A934205D1FB681B6A23F00402FB68AF
:103CA8001A62FB689B693B613B6923F0F0033B6147
:103CB8007B681B013A6913433B617B6923F00A0364
:103CC8007B617A69BB6813437B61FB683A699A61D7
:103CD800FB687A691A6200BF1C37BD4680BC704712
:103CE800002C01400034014080B487B000AFF86078
:103CF800B9607A60FB681B6A7B61FB681B6A23F00A
:103D08001002FB681A62FB68164A934203D0FB68EC
:103D1800154A934205D1FB681B6A23F04002FB68F1
:103D28001A62FB689B693B613B6923F470433B6102
:103D38007B681B033A6913433B617B6923F0A0034B
:103D48007B61BB681B017A6913437B61FB683A6935
:103D58009A61FB687A691A6200BF1C37BD4680BC4D
:103D6800704700BF002C01400034014080B485B08A
:103D780000AF786039607B689B68FB60FB6823F064
:103D88007003FB603A68FB68134343F00703FB606A
:103D98007B68FA689A6000BF1437BD4680BC7047DC
:103DA80080B487B000AFF860B9607A603B60FB68A8
:103DB8009B687B617B6923F47F437B613B681A02C4
:103DC8007B681A43BB6813437A6913437B61FB68BA
:103DD8007A699A6000BF1C37BD4680BC704780B4C2
:103DE80087B000AFF860B9607A60BB6803F01F0362
:103DF800012202FA03F37B61FB681A6A7B69DB43E1
:103E08001A40FB681A62FB681A6ABB6803F01F0352
:103E1800796801FA03F31A43FB681A6200BF1C377A
:103E2800BD4680BC7047000080B483B000AF7860A6
:103E38007B681C4AC3F880207B681B4AC3F884202F
:103E48007B681A4AC3F888207B68194AC3F88C2013
:103E58007B68184AC3F890207B68174AC3F89420F7
:103E68007B68164AC3F898207B68154AC3F89C20DB
:103E78007B68144AC3F8A0207B68134AC3F8A420BF
:103E88007B68124AC3F8A8207B68114AC3F8AC20A3
:103E98007B68104AC3F8B02000BF0C37BD4680BC11
:103EA800704700BF81170008F73400086335000821
:103EB800753500081B3500082D3500080935000840
:103EC8003F3500085135000887350008B93F00081C
:103ED800CB3F0008DD3F000880B485B000AF7860B4
:103EE80039607B6893F83C30012B01D1022350E004
:103EF8007B68012283F83C207B68022283F83D20FE
:103F08007B681B685B68FB607B681B689B68BB60A1
:103F1800FB6823F07003FB603B681B68FA68134377
:103F2800FB607B681B68FA685A607B681B681B4AE1
:103F3800934218D07B681B68194A934213D07B6858
:103F48001B68B3F1804F0ED07B681B68154A9342FB
:103F580009D07B681B68144A934204D07B681B68AD
:103F6800124A93420CD1BB6823F08003BB603B68C4
:103F78005B68BA681343BB607B681B68BA689A6061
:103F88007B68012283F83D207B68002283F83C206F
:103F9800002318461437BD4680BC7047002C0140EA
:103FA800003401400004004000080040000C0040BC
:103FB80080B483B000AF786000BF0C37BD4680BCCA
:103FC800704780B483B000AF786000BF0C37BD463F
:103FD80080BC704780B483B000AF786000BF0C37F6
:103FE800BD4680BC704780B582B000AF78607B6802
:103FF800002B01D1012342E07B6893F84130DBB20A
:10400800002B06D17B68002283F84020786800F0F6
:104018006CF87B68242283F841207B681B68DA6887
:104028007B681B6822F40052DA60786800F070F848
:104038007B681B681A697B681B6822F490421A61C6
:104048007B681B685A697B681B6822F02A025A61E0
:104058007B681B68DA687B681B6842F40052DA6088
:104068007B6800225A647B68202283F841207B68A1
:10407800202283F842207B6800225A6300231846D6
:104088000837BD4680BD80B582B000AF78607B68D8
:10409800002B01D1012324E07B68242283F84120EE
:1040A8007B681B68DA687B681B6822F40052DA6058
:1040B800786800F023F87B6800225A647B68002245
:1040C80083F841207B68002283F842207B68002225
:1040D8001A637B6800225A637B68002283F84020B9
:1040E800002318460837BD4680BD80B483B000AFB2
:1040F800786000BF0C37BD4680BC704780B483B081
:1041080000AF786000BF0C37BD4680BC7047000028
:1041180080B584B000AF78607B681B681B6923F4A6
:1041280040517B68DA687B681B680A431A617B68C0
:104138009A687B681B691A437B685B691343BB6099
:104148007B681B68DB6823F4B05323F00C037A68A0
:104158001268B9680B43D3607B681B685B6923F4FA
:1041680040717B689A697B681B680A435A617B685F
:104178001B682C4A934203D1FEF768FCF86002E002
:10418800FEF750FCF860FA6813469B0013449A0047
:104198001A447B685B689B00B2FBF3F3224AA2FBDC
:1041A80003235B091901FA6813469B0013449A001C
:1041B8001A447B685B689B00B2FBF3F21A4BA3FBC3
:1041C80002035B09642000FB03F3D31A1B0132339B
:1041D800154AA2FB03235B0903F0F0031944FA68AC
:1041E80013469B0013449A001A447B685B689B0043
:1041F800B2FBF3F20C4BA3FB02035B09642000FB48
:1042080003F3D31A1B013233074AA2FB03235B09CA
:1042180003F00F027B681B680A449A6000BF1037DE
:10422800BD4680BD003801401F85EB5180B483B086
:1042380000AF78607B681B6843F001027B681A60F6
:1042480000BF0C37BD4680BC704780B483B000AF58
:1042580078607B681B6823F001027B681A6000BFE6
:104268000C37BD4680BC704780B485B000AFF8609D
:10427800B9607A60FB689B6823F4034323F0FF036B
:10428800B9687A680A431A43FB689A6000BF143712
:10429800BD4680BC7047000080B487B000AFF860AE
:1042A800B9607A603B6000233B6100237B61BB6897
:1042B800414AA2FB03239B0C3B61FB685B6823F02C
:1042C8003F023B691A43FB685A60FB681B6A23F08C
:1042D8003F027B6839498B4202D83B69013309E0C8
:1042E8003B694FF4967101FB03F33549A1FB0313B6
:1042F8009B0901331A43FB681A627B682F4A934271
:1043080039D93B68002B17D17A6813465B001344F0
:10431800BA68B2FBF3F3C3F30B03002B09D07A6836
:1043280013465B001344BA68B2FBF3F343F400434B
:104338001DE048F201031AE07A6813469B00134413
:104348009A001344BA68B2FBF3F3C3F30B03002BD0
:104358000BD07A6813469B0013449A001344BA683A
:10436800B2FBF3F343F4004301E048F201033A6877
:1043780013437B6111E07B685B00BA68B2FBF3F220
:1043880040F6FC731340002B05D07B685B00BA68CD
:10439800B2FBF3F300E004237B61FB68DB6923F4E1
:1043A8004F4323F0FF037A691A43FB68DA6100BFC1
:1043B8001C37BD4680BC704783DE1B43A0860100C6
:1043C800D34D621080B483B000AF786039607B68E9
:1043D8001B6823F01A023B681A437B681A6000BF07
:1043E8000C37BD4680BC704780B483B000AF78609E
:1043F80039607B681B6823F480623B681A437B68DA
:104408001A6000BF0C37BD4680BC704780B586B0C7
:1044180000AF786039607868FFF717FF07F1080385
:10442800184600F07BF839693B685A683B689B6816
:104438007868FFF731FF3B68D9683B685B691A46C3
:104448007868FFF711FF3B681B6819467868FFF723
:10445800B9FF7868FFF7EAFE3B681B691946786878
:10446800FFF7C2FF002318461837BD4680BD00007D
:1044780080B400AF034B5B6803F00C031846BD46DD
:1044880080BC70470010024080B400AF034B5B68EB
:1044980003F0F0031846BD4680BC70470010024088
:1044A80080B400AF034B5B6803F4E0631846BD4675
:1044B80080BC70470010024080B400AF034B5B68BB
:1044C80003F460531846BD4680BC70470010024094
:1044D80080B400AF034B5B6803F480331846BD46D5
:1044E80080BC70470010024080B400AF034B5B688B
:1044F80003F470131846BD4680BC70470010024094
:1045080080B400AF044B5B685B0C03F001031846F2
:10451800BD4680BC704700BF0010024080B582B025
:1045280000AF786000F020F802467B681A607B686C
:104538001B68184600F03EF802467B685A607B68A4
:104548005B68184600F04CF802467B689A607B6806
:104558005B68184600F058F802467B68DA6000BFCE
:104568000837BD4680BD000080B582B000AF00238B
:104578007B60FFF77DFF0346082B0CD0082B0ED875
:10458800002B02D0042B03D009E0094B7B6009E023
:10459800074B7B6006E000F04BF8786002E0044BC4
:1045A8007B6000BF7B6818460837BD4680BD00BFEA
:1045B80000127A0080B582B000AF7860FFF764FF20
:1045C80003461B0903F00F03044AD35C1A467B68B1
:1045D800D34018460837BD4680BD00BF28B303083E
:1045E80080B582B000AF7860FFF75AFF03461B0A18
:1045F800044AD35C1A467B68D34018460837BD4640
:1046080080BD00BF38B3030880B582B000AF7860C2
:10461800FFF752FF0346DB0A044AD35C1A467B685D
:10462800D34018460837BD4680BD00BF38B30308DD
:1046380080B582B000AF00237B6000233B60FFF7AA
:1046480047FF38603B68002B04D03B68B3F5803FD8
:1046580003D00BE00D4B7B600BE0FFF751FF0346E7
:1046680001330B4AB2FBF3F37B6002E0074B7B603C
:1046780000BFFFF739FF03469B0C02337A6802FB41
:1046880003F318460837BD4680BD00BF00093D004A
:1046980000127A0080B500AF03F026F800F0D8FCCD
:1046A80000F06CFA00BF80BD80B584B000AF7860C0
:1046B800786828F0C9FDF860FB6818461037BD46D1
:1046C80080BD80B582B000AF7860786828F0ECFED5
:1046D80000BF0837BD4680BD80B584B000AF7860A4
:1046E80039603B68002B04D1786828F0DDFE002390
:1046F8000FE0386828F0A8FDF8607B68002B07D029
:104708003A687968F868FCF7F5FD786828F0CCFE17
:10471800FB6818461037BD4680BD80B584B000AF31
:10472800786039607B683A6802FB03F3184628F022
:104738008BFDF860FB68002B08D07B683A6802FBA9
:1047480003F31A460021F8682BF0E4FAFB681846D0
:104758001037BD4680BD000080B586B000AF7860D8
:10476800124A07F1080392E8030083E803007B6814
:10477800002B06D10E4A07F1080393E8030000F066
:1047880085F978682BF09EFF034601337B617869D1
:10479800FFF78AFF03463B617A6979683869FCF755
:1047A800A9FD3B6918461837BD4680BDF85A03086D
:1047B800885A030880B500AF28F0EAFE0346184679
:1047C80080BD80B400AF4FF420431846BD4680BC7E
:1047D800704780B500AF28F0E5FE0346184680BD57
:1047E80080B584B000AF0023FB73EFF305837B60D3
:1047F8007B68002B02D00123FB730DE027F018FB28
:10480800B860BB68012B07D0EFF310833B603B68AF
:10481800002B01D00123FB73FB7B18461037BD46E4
:1048280080BD80B500AF27F003FB0346022B0CBF09
:1048380001230023DBB2184680BD80B582B000AFEB
:10484800FFF7CEFF0346002B0AD04FF0500383F347
:104858001188BFF36F8FBFF34F8F3B6000BFFEE738
:1048680027F0E6FA0346002B02D0022B03D007E01C
:1048780001237B6008E026F0E3F900237B6003E076
:104888004FF0FF337B6000BF7B6818460837BD4692
:1048980080BD80B582B000AFFFF7A2FF0346002BB2
:1048A8000AD04FF0500383F31188BFF36F8FBFF323
:1048B8004F8F3B6000BFFEE727F0BAFA0346002B94
:1048C80002D0022B10D012E001237B6026F0C6F93B
:1048D8000346012B0FD027F0ABFA0346002B0AD171
:1048E8004FF0FF337B6006E000237B6004E04FF06D
:1048F800FF337B6000E000BF7B6818460837BD4681
:1049080080BD80B400AF4FF47A731846BD4680BCB2
:104918007047000080B584B000AF7860FFF760FF93
:104928000346002B0AD04FF0500383F31188BFF3DE
:104938006F8FBFF34F8FFB6000BFFEE77B68002BD4
:1049480008D1084B4FF080521A60BFF34F8FBFF366
:104958006F8F02E0786825F061FF00BF1037BD4611
:1049680080BD00BF04ED00E080B582B000AFFFF766
:1049780037FF0346002B03D026F086FA786002E062
:1049880026F074FA78607B6818460837BD4680BD03
:1049980080B483B000AF78607B6818460C37BD469A
:1049A80080BC704780B584B000AF7860EFF30583B2
:1049B800FB60FB68002B1CD1EFF31083BB60BB6866
:1049C800002B16D127F034FA0346022B11D17B684D
:1049D800002B06D07B6813F1030F02D87B680133E4
:1049E8007B607868FFF7D4FF03461846FFF792FF0D
:1049F8000AE07B68002B07D07B684FF47A7202FBD1
:104A080003F3184600F004F800BF1037BD4680BD18
:104A180080B582B000AF7860786803F007FD00BF0A
:104A28000837BD4680BD0000F0B589B006AF1EF05E
:104A3800040F0CBFEFF30883EFF309837B60114B7E
:104A4800002B1BD07B681D687B685E687B68D3F889
:104A580008C07B68DB687A68126979684969786890
:104A680080697C68E4690494039002910192009340
:104A78006346324629460448AFF3008000BF0C372E
:104A8800BD46F0BD00000000005B030880B58AB099
:104A980002AF07F1080383E803007A6072B600BF2B
:104AA800214B002B01D0AFF30080EFF305837B612E
:104AB8007B69002B14BF01230023FB771B4B1B686A
:104AC80003F00103002B14BF01230023BB77BB684D
:104AD8002F2118462BF046FAB861BB69002B02D08B
:104AE800BB690133BB60124B002B0AD0FFF73CFFB8
:104AF8000146BA68FB68009313467A680D48AFF31D
:104B08000080FFF791FFBB68FA68019200937B6809
:104B1800094A0A49052000F03DF8BB7F002B00D068
:104B2800FEE703F03DFD00BF00000000F0ED00E0EF
:104B3800000000004C5B0308705B0308A05B0308DF
:104B480080B586B000AFF860B9607A6000237B61F9
:104B58000AE07B69BA6813441B78194600200BF0F9
:104B680033FB7B6901337B617A697B689A42F0DBAE
:104B78007B6818461837BD4680BD000080B500AF79
:104B8800012003F00BF80346014A136000BF80BD03
:104B9800300900200CB490B58BB002AF03463960E1
:104BA800FB71524B1B78FA799A4200F293800023EA
:104BB800FB6114E04E4AFB6952F82330002B0BD0FE
:104BC8004B4AFB6952F8233039681846FCF7B4FAA7
:104BD8000346002B00F08080FB690133FB61FB6911
:104BE8001F2BE7DDEFF305833B613B69002B18D1F1
:104BF800EFF31083FB60FB68002B12D13D4B1C6860
:104C0800FFF70FFE0346002B02D04FF0FF3300E002
:104C180000231946204603F05BF80346002B08D012
:104C28005DE0344B1B68184603F01CF90346002B63
:104C380054D1314BBB61314B7B61FB79023B042B77
:104C480025D801A252F823F0654C00086F4C0008E3
:104C5800794C0008834C00088D4C0008284BBB6138
:104C6800284B7B6114E0284BBB61284B7B610FE02C
:104C7800274BBB61274B7B610AE0274BBB61274B66
:104C88007B6105E0264BBB61264B7B6100E000BFE2
:104C9800FFF76AFE02463B6801937B69009313465F
:104CA800BA69214900200BF049F807F13403BB60C9
:104CB80007F108031A46396B00200AF06BFE0E4A0A
:104CC8001A4900200BF03AF80A4B1B68184603F003
:104CD8006BF804E000BF02E000BF00E000BF24372B
:104CE800BD46BDE8904002B0704700BF09000020F3
:104CF800B008002030090020A85B0308B05B030857
:104D0800B45B0308BC5B0308C05B0308C85B03080B
:104D1800CC5B0308D45B0308D85B0308E05B03089B
:104D2800E45B0308EC5B0308F05B0308045C03081E
:104D380090B587B000AF78601A4A07F10C0392E883
:104D4800030083E803007B68002B06D1164A07F1AD
:104D58000C0393E80300FFF799FE0023FB751BE0A3
:104D6800FB7D124A52F82330002B12D1FC7D102013
:104D7800FFF79AFC03461A460C4B43F82420FB7DA8
:104D88000A4A52F823301022796818462BF0B4F8F2
:104D980005E0FB7D0133FB75FB7D1F2BE0D91C373C
:104DA800BD4690BD745C0308085C0308B008002089
:104DB80080B586B000AF78601D4A07F10C0392E811
:104DC800030083E803007B68002B06D1194A07F12A
:104DD8000C0393E80300FFF759FE0023FB7520E05E
:104DE800FB7D154A52F82330002B17D0FB7D124A61
:104DF80052F8233079681846FCF79EF90346002BD1
:104E08000CD1FB7D0C4A52F823301846FFF759FCA9
:104E1800FB7D094A002142F8231005E0FB7D0133A0
:104E2800FB75FB7D1F2BDBD91837BD4680BD00BF46
:104E38007C5C0308085C0308B008002080B584B0D7
:104E480000AF0346FB710E4A07F1080392E803001E
:104E580083E80300FB79062B06D90A4A07F1080301
:104E680093E80300FFF712FEFB79002B01D105231D
:104E7800FB71054AFB79137000BF1037BD4680BD32
:104E8800845C0308085C03080900002080B400AFB4
:104E9800024B1B781846BD4680BC704709000020AD
:104EA80080B582B000AF00BF054A3B4692E80300D8
:104EB80083E80300034A3B4693E80300FFF7E6FD57
:104EC8000C5D03088C5C030880B584B000AF786083
:104ED8000B46FB700C4A07F1080392E8030083E8CD
:104EE80003007B68002B06D1084A07F1080393E802
:104EF8000300FFF7CBFD7B68FA7883F8B42100BF85
:104F08001037BD4680BD00BF1C5D0308145D030853
:104F180090B58FB000AF7860464A07F12C0392E84D
:104F2800030083E803007B68002B06D1424A07F19F
:104F38002C0393E80300FFF7A9FD7B687B633F4AD6
:104F480007F1240392E8030083E80300002100200E
:104F580026F058FD0346002B06D0374A07F12403F4
:104F680093E80300FFF792FD7B6B1A4600210020AF
:104F780026F018FD324A07F11C0392E8030083E883
:104F880003007B6B93F8B431DBB2022B06D02A4ABC
:104F980007F11C0393E80300FFF778FD7B6B0321FF
:104FA8001846FFF791FF7B6BD3F8BC317A6BD2F8C8
:104FB800C0217C6B104698470346C4F8B831214A93
:104FC80007F1140392E8030083E803007B6B93F86E
:104FD800D831002B06D0184A07F1140393E80300D0
:104FE800FFF754FD184A07F10C0392E8030083E821
:104FF80003007B6B93F8B431DBB2032B06D00E4A67
:1050080007F10C0393E80300FFF740FD7B6B0121D8
:105018001846FFF759FF0D4B1B6807F134014FF095
:10502800FF32184602F0A6FF002025F0B3FCFFF778
:1050380037FF00BF245D0308145D03082C5D0308D7
:10504800345D03083C5D0308445D0308340900200F
:1050580080B500AF0421082002F034FF0346024A5D
:10506800136000BF80BD00BF3409002080B584B044
:1050780000AF78603960164A07F1080392E8030028
:1050880083E803007B68002B06D1124A07F1080366
:1050980093E80300FFF7FAFC7B68D3F8C431002BD0
:1050A80005D07B68D3F8C4311846FFF70AFB3B6884
:1050B800002B05D03868FFF74FFB03461A4600E07F
:1050C80000227B68C3F8C42100BF1037BD4680BDED
:1050D8004C5D0308145D030880B586B000AFF86026
:1050E800B9607A603B604FF4F0710120FFF715FB5F
:1050F80003467B61B868FFF7D7FA03461A467B690F
:10510800C3F8B0217B69BA68C3F8D0217B697A6893
:10511800C3F8BC217B693A68C3F8C0217B691022B7
:1051280083F8CC217B69002283F8D821F968786953
:10513800FFF79CFF7B6918461837BD4680BD80B5D0
:1051480086B000AFF860B9607A603B603B687A6807
:10515800B968F868FFF7C0FF78617B69012283F8B6
:10516800D8217B6918461837BD4680BD80B586B002
:1051780000AF78601C4A07F1100392E8030083E847
:1051880003007B68002B06D1184A07F1100393E847
:105198000300FFF77BFC164A07F1080392E80300B7
:1051A80083E803007B6893F8D831002B06D00F4AB8
:1051B80007F1080393E80300FFF768FC002178680B
:1051C800FFF754FF7B68D3F8B031002B05D07B681C
:1051D800D3F8B0311846FFF774FA7868FFF771FA18
:1051E80000BF1837BD4680BD545D0308145D030831
:1051F8005C5D030880B592B004AF78603E4A07F161
:105208002C0392E8030083E803007B68002B06D197
:105218003A4A07F12C0393E80300FFF737FC384AB2
:1052280007F1240392E8030083E803007B68D3F8BE
:10523800BC31002B06D1314A07F1240393E803005F
:10524800FFF724FC2F4A07F11C0392E8030083E8C8
:1052580003007B6893F8B431DBB2002B06D0274AF1
:1052680007F11C0393E80300FFF710FC264A07F137
:10527800140392E8030083E803007B68D3F8D03175
:10528800002B06D11D4A07F1140393E80300FFF72A
:10529800FDFB02217868FFF717FE7B68D3F8D03151
:1052A8009B087B63194A07F10C0392E8030083E823
:1052B80003007B68D3F8C4117B6893F8CC31184697
:1052C8007B68D3F8B0317A680292019300907B68CA
:1052D8007A6B0F4825F081F802467B68934206D026
:1052E800064A07F10C0393E80300FFF7CFFB00BF62
:1052F8003837BD4680BD00BF645D0308145D0308F0
:105308006C5D0308745D03087C5D0308845D030815
:10531800194F000880B588B000AF7860224A07F1BD
:10532800180392E8030083E803007B68002B06D18A
:105338001E4A07F1180393E80300FFF7A7FB1C4A6E
:1053480007F1100392E8030083E803007B6893F8F1
:10535800D831002B06D0154A07F1100393E8030053
:10536800FFF794FB134A07F1080392E8030083E868
:10537800030000F021F802467B68934209D10B4AEA
:1053880007F1080393E80300FFF780FB0220FFF70B
:10539800C1FA7B6893F8B431DBB2002BF6D1012354
:1053A80018462037BD4680BD8C5D0308145D030890
:1053B800945D03089C5D030880B582B000AF0021AE
:1053C800002026F01FFB78607B6818460837BD462A
:1053D80080BD000080B584B000AF78600A4A07F14C
:1053E800080392E8030083E803007B68002B06D1DA
:1053F800064A07F1080393E80300FFF747FB7B68B9
:1054080018461037BD4680BDA45D0308145D030827
:1054180080B588B002AF786039607B687B617B6952
:10542800002B02D03B68002B03DA6FF00303FB600C
:105438003DE04FF0FF33FB60EFF305833B613B69D1
:10544800002B23D00023BB6007F10803019300233E
:10545800009301233A680121786927F0D3F80023E3
:10546800019307F10C0300930023002201217869BE
:1054780027F0C8F8BB68002B19D00F4B4FF08052AB
:105488001A60BFF34F8FBFF36F8F10E000230093B4
:1054980001233A680121786926F08CFF07F10C0393
:1054A8000093002300220121786926F083FFFB681E
:1054B80018461837BD4680BD04ED00E080B58EB0B3
:1054C80002AFF860B9607A60EFF305837B617B69AE
:1054D800002B03D06FF00503FB626EE0FB68002B26
:1054E80003DA6FF00303FB6267E0BB6803F00203B3
:1054F800002B02D00023BB6201E0FB68BB620023E3
:10550800FB627B687B6225F0B1FC386207F1100210
:105518007B6A00931346BA6A0021012026F0AAFE8E
:10552800F861FB69012B37D1FA6AFB681340FB620B
:105538003B69FA6A1343FB62BB6803F00103002B63
:105548000CD0FA68FB6A1340FA689A4232D07B683A
:10555800002B0FD16FF00203FB622EE0FA68FB6AA2
:105568001340002B28D17B68002B03D16FF0020376
:10557800FB6222E025F07AFC02463B6AD31ABB6143
:10558800BA697B6A9A4202D900237B620EE07A6A82
:10559800BB69D31A7B6209E07B68002B03D16FF0EB
:1055A8000203FB6202E06FF00103FB62FB69002B60
:1055B800ACD102E000BF00E000BFFB6A18463037FC
:1055C800BD4680BD80B586B000AF00233B61214A4F
:1055D80007F1080392E8030083E803001E4B1B68E9
:1055E80007F110014FF0FF32184602F02FFD034675
:1055F800002B06D0194A07F1080393E80300FFF7C8
:1056080045FA3B697B61786925F076F8144A3B4690
:1056180092E8030083E803000021786926F0F2F994
:1056280002463B699A4205D00C4A3B4693E8030080
:10563800FFF72CFA00220021786926F0B3F93B69BC
:1056480000211846FFF740FC064A07490520FFF7E6
:10565800A1FABCE7C45D030834090020145D0308FF
:10566800CC5D0308AC5D0308BC5D030880B483B05F
:1056780000AF0346FB71FB79052B1BD801A252F83A
:1056880023F000BFA5560008A9560008AD5600082B
:10569800B1560008B5560008B9560008084B0AE08C
:1056A800084B08E0084B06E0084B04E0084B02E012
:1056B800084B00E0084B18460C37BD4680BC7047C5
:1056C800D45D0308DC5D0308E45D0308EC5D0308B2
:1056D800F85D0308005E0308085E030880B58CB017
:1056E80000AF7860554A07F1100392E8030083E899
:1056F8000300EFF30583BB61BB69002B06D0504A5A
:1057080007F1100393E80300FFF7C0F925F098FAB2
:10571800FFF72AF9B86225F0C9FB78627B6A2C2268
:1057280002FB03F3184627F08FFD38623B6A002B13
:105738007DD007F10C031A46796A386A25F0C0FB58
:105748007862786800F09EF80023FB6261E0786870
:1057580000F0ECF8F861FB6A2C2202FB03F33A6ACA
:1057680013445A68FB695A60FB6A2C2202FB03F354
:105778003A6A13441B69DAB2FB691A72FB6A2C2273
:1057880002FB03F33A6A1344DB691A46FB69DA60E1
:10579800FB6A2C2202FB03F33A6A13445A6AFB6A37
:1057A8002C2101FB03F3396A0B44DB69D31A9B10E4
:1057B80002331A46FB691A61FB6A2C2202FB03F3C7
:1057C8003A6A13441B68184626F0AEFA0246FB698B
:1057D8005A61FB6A2C2202FB03F33A6A13441B7BCF
:1057E8001846FFF743FF0246FB699A61FB691A6A8C
:1057F800FB69DA61FB6A2C2202FB03F33A6A134461
:105808009A69FB691A62FB69BA6A9A62FB6A013390
:10581800FB62FA6A7B6A9A4299D3386A27F044FE97
:10582800FB68BA6A1946786800F012F900E000BF10
:1058380025F014FA00BF3037BD4680BD0C5E030862
:10584800145D030880B582B000AF1420FEF72CFF6A
:1058580003467B607B68002B0ED07B6800221A60B1
:105868007B6800225A607B6800229A607B6800226D
:10587800DA607B6800221A617B6818460837BD46E3
:1058880080BD000080B586B000AF7860134A07F18C
:10589800080392E8030083E803007B68002B06D125
:1058A8000F4A07F1080393E80300FFF7EFF87B6856
:1058B8001B687B6107E07B69DB6A3B617869FEF7FF
:1058C80000FF3B697B617B69002BF4D17B68002278
:1058D8001A6000BF1837BD4680BD00BF885E030848
:1058E800145E030880B584B000AF78600D4A07F1F4
:1058F800080392E8030083E803007B68002B06D1C5
:10590800094A07F1080393E80300FFF7BFF878682E
:10591800FFF7B8FF7868FEF7D4FE00BF1037BD4622
:1059280080BD00BF905E0308145E030880B586B092
:1059380000AF7860124A07F10C0392E8030083E88D
:1059480003007B68002B06D10E4A07F10C0393E88D
:105958000300FFF79BF83020FEF7A6FE03467B61A5
:105968007B69002B06D07B681A687B69DA627B68E2
:105978007A691A607B6918461837BD4680BD00BF32
:10598800A85E0308145E030880B586B000AF78608F
:105998000B467B80154A07F1080392E8030083E869
:1059A80003007B68002B06D1114A07F1080393E82E
:1059B8000300FFF76BF87B681B687B6100237B8221
:1059C8000BE07A8A7B889A4201D17B6909E07B697E
:1059D800DB6A7B617B8A01337B827B69002BF0D198
:1059E800002318461837BD4680BD00BFC05E0308B7
:1059F800145E030880B586B000AF7860124A07F1DC
:105A0800080392E8030083E803007B68002B06D1B3
:105A18000E4A07F1080393E80300FFF737F800235D
:105A2800FB827B681B683B6105E0FB8A0133FB82D4
:105A38003B69DB6A3B613B69002BF6D1FB8A184660
:105A48001837BD4680BD00BFC85E0308145E030852
:105A580090B58DB000AFF860B9607A60384A07F148
:105A6800100392E8030083E80300FB68002B06D1CB
:105A7800344A07F1100393E80300FFF707F8FB68BF
:105A88009A68FB685A60FB68BA689A60FB689A680B
:105A9800FB685B68D31A7B62F868FFF7ABFF0346C5
:105AA8007B840023FB6241E0FB6A9BB21946F868DD
:105AB800FFF76AFFF861FB691A6AFB69DB69D31AA9
:105AC800BB61BB69002B25D0FB69DB69002B21D0AA
